:03000000020AB63B
:0C0AB600787FE4F6D8FD75812702080067
:100A7C0054696D6572003A0054696D657220537447
:060A8C0061727465640054
:090A32007F80120A927F027E000F
:100A3B00E4FDFCD3ED9FEE6480F8EC6480985015D8
:100A4B00E4FBFA0BBB00010ABA01F8BB2DF50DBD97
:050A5B0000010C80DE2B
:010A60002273
:100A92008FA0D2B5C2B7C2B17F017E00120A3BC29B
:020AA200B5227B
:100AA4008FA0C2B1D2B7D2B57F017E00120A3BC279
:020AB400B52269
:0D09FB00AF22AE211209187BFF7A0A798223
:100A08008B258A268927AB25AA26A92712098DFFB7
:100A18006017120AA474012527F527E43526F52660
:0A0A28007F057E00120A3B80DD22EC
:04091800AB07AA0679
:10091C00900000D3EB9400EA9400402A7C007D0AFE
:10092C00AF03AE021209A6AF82EF25E02408F8A6A9
:10093C000408A6057C007D0AAF03AE021209A6AA24
:10094C0006AB07A380CDE582158270021583C3E543
:10095C0083648094804029AF82EF25E02408F80856
:10096C00E62430F51CF5A0C2B1D2B7D2B57F017E1A
:10097C0000120A3BC2B5E582158270D2158380CE77
:01098C002248
:100A61007F38120A347F0E120A347F06120A347F4D
:0B0A710080120A927F027E00020A3B06
:0C0AC2007F14120A927F027E00020A3BA1
:0C0ACE007F10120A927F027E00020A3B99
:1008000075210075220175230075240A120A6112F0
:100810000A327BFF7A0A797C120A087FC0120A34F6
:100820001209FBAF24AE2312091820902FD2947422
:100830000A2524F524E43523F523D3E524943CE567
:10084000239400400E0522E5227002052175230045
:1008500075240A7FF47E01120A3B8002C294209123
:1008600035D29574F62524F52474FF3523F523C37A
:10087000E5249401E52394005013E522152270022B
:10088000152175230075243C7F01120A927FF47EA6
:1008900001120A3B8002C29520927885231F85248D
:1008A0002085211D85221EE52445236057D29612FE
:1008B0000A327BFF7A0A7984120A087FC0120A344E
:1008C0001209FBAF24AE231209187FDE7E03120A41
:1008D0003BE524152470021523C3E5229401E5218C
:1008E00094004019D3E5249400E5239400500EE5CC
:1008F0002215227002152175230075243C7F0112F8
:100900000A9280A3851D21851E22851F2385202410
:08091000120A37C29602080F1B
:10098D00BB010689828A83E0225002E722BBFE0268
:09099D00E32289828A83E493229B
:1009A600BC000BBE0029EF8DF084FFADF022E4CC35
:1009B600F875F008EF2FFFEE33FEEC33FCEE9DECFE
:1009C600984005FCEE9DFE0FD5F0E9E4CEFD22ED44
:1009D600F8F5F0EE8420D21CFEADF075F008EF2F8E
:1009E600FFED33FD4007985006D5F0F222C398FD7F
:0509F6000FD5F0EA221C
:00000001FF
