:100000000C9434000C943E000C943E000C943E0082
:100010000C943E000C943E000C943E000C943E0068
:100020000C943E000C943E000C943E000C943E0058
:100030000C943E000C943E000C943E000C943E0048
:100040000C943E000C943E000C943E000C943E0038
:100050000C943E000C943E000C943E000C943E0028
:100060000C943E000C943E0011241FBECFEFD8E04C
:10007000DEBFCDBF0E9440000C947F000C940000B6
:10008000CF93DF93CDB7DEB72A970FB6F894DEBFD4
:100090000FBECDBF8FEF8AB98BB980ECC82E99EF18
:1000A000B92E24EAA22E70EBA9E9B2E912E808EF12
:1000B00030E8F32E40E9E42E9E01255F3F4FC982D0
:1000C000BA82AB827C83AD83BE831F830887F986A7
:1000D000EA86FE013196D190DBB84FEF5DE262E235
:1000E000415050406040E1F700C000002E173F072C
:1000F00091F70FB6F894DEBF0FBECDBFE0CFF894F6
:02010000FFCF2F
:00000001FF
