:100000000C946F000C9497000C9497000C9497003C
:100010000C9497000C9497000C9497000C94970004
:100020000C9497000C9497000C9497000C949700F4
:100030000C9497000C9497000C9497000C949700E4
:100040000C9462020C9497000C9430020C940A02F7
:100050000C9497000C9497000C9497000C949700C4
:100060000C9497000C9497000000000023002600D9
:10007000290004040404040404040202020202022B
:10008000030303030303010204081020408001025C
:1000900004081020010204081020000000080002DB
:1000A00001000003040700000000000000002D2DE7
:1000B0002D2D2D2D2D2D2D2D2D2D2D2D2D2D2D2D70
:1000C0002D2D2D2D2D2D2D2D2D2D2D2D2D2D2D2D60
:1000D0002D2D2D2D2D2D2D2D2D2D2D0017041124E1
:1000E0001FBECFEFD8E0DEBFCDBF11E0A0E0B1E092
:1000F000ECEDF8E002C005900D92A633B107D9F7F8
:1001000021E0A6E3B1E001C01D92AE3DB207E1F7E8
:1001100010E0CFE6D0E004C02197FE010E94660403
:10012000CE36D107C9F70E94AC020C946C040C9433
:100130000000AF92BF92CF92DF92EF92FF920F93A7
:100140001F93CF93DF936C017B018B01040F151F6D
:10015000EB015E01AE18BF08C017D10759F06991D5
:10016000D601ED91FC910190F081E02DC601099539
:10017000892B79F7C501DF91CF911F910F91FF90E6
:10018000EF90DF90CF90BF90AF900895FC01538D1A
:10019000448D252F30E0842F90E0821B930B541761
:1001A00010F0CF96089501970895FC01918D828DEE
:1001B000981761F0A28DAE0FBF2FB11D5D968C9187
:1001C000928D9F5F9F73928F90E008958FEF9FEFC6
:1001D0000895FC01918D828D981731F0828DE80F82
:1001E000F11D858D90E008958FEF9FEF0895FC013C
:1001F000918D228D892F90E0805C9F4F821B910909
:100200008F739927089581E491E00E94F70021E01F
:10021000892B09F420E0822F089580E090E0892B5B
:1002200029F00E94030181110C9400000895FC0143
:10023000A48DA80FB92FB11DA35ABF4F2C91848D47
:1002400090E001968F739927848FA689B7892C93A4
:10025000A089B1898C91837080648C93938D848DF7
:10026000981306C00288F389E02D80818F7D8083FA
:100270000895EF92FF920F931F93CF93DF93EC01BA
:1002800081E0888F9B8D8C8D98131AC0E889F9893D
:10029000808185FF15C09FB7F894EE89FF89608340
:1002A000E889F98980818370806480839FBF81E0C1
:1002B00090E0DF91CF911F910F91FF90EF90089503
:1002C000F62E0B8D10E00F5F1F4F0F731127E02EDE
:1002D0008C8D8E110CC00FB607FCFACFE889F98916
:1002E000808185FFF5CFCE010E941701F1CFEB8D04
:1002F000EC0FFD2FF11DE35AFF4FF0829FB7F894EA
:100300000B8FEA89FB8980818062CFCFCF93DF9307
:10031000EC01888D8823B9F0AA89BB89E889F9891D
:100320008C9185FD03C0808186FD0DC00FB607FC52
:10033000F7CF8C9185FFF2CF808185FFEDCFCE0185
:100340000E941701E9CFDF91CF9108953FB7F8944C
:1003500080913B0190913C01A0913D01B0913E0103
:1003600026B5A89B05C02F3F19F00196A11DB11D10
:100370003FBFBA2FA92F982F8827BC01CD01620F4C
:10038000711D811D911D42E0660F771F881F991F07
:100390004A95D1F708958F929F92AF92BF92CF92D4
:1003A000DF92EF92FF924B015C010E94A6016B016C
:1003B0007C010E94A6016C197D098E099F09683E87
:1003C000734081059105A8F321E0821A9108A108E4
:1003D000B10888EEC80E83E0D81EE11CF11C811420
:1003E0009104A104B10429F7FF90EF90DF90CF9022
:1003F000BF90AF909F908F900895FC0101900020D6
:10040000E9F73197AF01481B590BBC0181E491E03A
:100410000C9499001F920F920FB60F9211242F93F4
:100420003F934F935F936F937F938F939F93AF937C
:10043000BF93EF93FF9381E491E00E941701FF9136
:10044000EF91BF91AF919F918F917F916F915F914C
:100450004F913F912F910F900FBE0F901F901895C5
:100460001F920F920FB60F9211242F938F939F9389
:10047000EF93FF93E0915101F09152018081E0915F
:100480005701F091580182FD1BC0908180915A0163
:100490008F5F8F7320915B01821741F0E0915A01C9
:1004A000F0E0EF5BFE4F958F80935A01FF91EF9143
:1004B0009F918F912F910F900FBE0F901F901895C5
:1004C0008081F4CF1F920F920FB60F9211242F93B9
:1004D0003F938F939F93AF93BF93809137019091F8
:1004E0003801A0913901B0913A013091360123E0F1
:1004F000230F2D3758F50196A11DB11D209336010C
:100500008093370190933801A0933901B0933A0159
:1005100080913B0190913C01A0913D01B0913E0141
:100520000196A11DB11D80933B0190933C01A093C6
:100530003D01B0933E01BF91AF919F918F913F914B
:100540002F910F900FBE0F901F90189526E8230F44
:100550000296A11DB11DD2CFCF93DF93CDB7DEB7E9
:10056000A1970FB6F894DEBF0FBECDBF789484B5C7
:10057000826084BD84B5816084BD85B5826085BD9F
:1005800085B5816085BD80916E00816080936E002D
:10059000109281008091810082608093810080911F
:1005A00081008160809381008091800081608093D0
:1005B00080008091B10084608093B1008091B00090
:1005C00081608093B00080917A00846080937A008B
:1005D00080917A00826080937A0080917A008160B5
:1005E00080937A0080917A00806880937A001092DC
:1005F000C100E0915101F091520182E08083E091CD
:100600004D01F0914E011082E0914F01F0915001A7
:100610008FEC808310925901E0915501F0915601C1
:1006200086E08083E0915301F091540180818061E4
:100630008083E0915301F091540180818860808330
:10064000E0915301F0915401808180688083E091B2
:100650005301F091540180818F7D808382E191E08C
:100660000E94FD0182E291E00E94FD0160ED77E0D1
:1006700080E090E00E94CB0190E8692E90E0792E16
:10068000EE24EA94FE2C3AE0832E912CA12CB12C7E
:1006900040E0C42E40E0D42E80E480937C00809122
:1006A0007A00806480937A0080917A0086FDFCCF86
:1006B00080917800909179009093400180933F0160
:1006C000E8EAF0E08491E4E9F0E09491F301949198
:1006D0009923B1F0882359F0833009F47BC008F0E6
:1006E0006EC0813009F47CC0823009F47DC0E92FEE
:1006F000F0E0EE0FFF1FE859FF4FA591B4918C91E8
:10070000F0924001E0923F0185E291E00E94FD01FC
:1007100020903F0130904001032C000C4408550804
:1007200057FE6FC06DE281E491E00E9439012227FB
:100730003327A901221933094409550919A28E0149
:100740000F5D1F4FCA01B901A50194010E94440425
:10075000605DF80162938F01211531054105510556
:1007600089F70115110519F0C8010E94FD0184E304
:1007700091E00E94FD010EEA10E0F8016491662309
:1007800041F081E491E00E9439010F5F1F4F892BF6
:10079000A1F782E291E00E94FD0168EE73E080E043
:1007A00090E00E94CB01C114D10409F475CF0E94DE
:1007B0000301882309F470CF0E9400006DCF8730B9
:1007C000B1F08830D1F0843009F091CF8091800071
:1007D0008F7D03C0809180008F778093800087CFCA
:1007E00084B58F7784BD83CF84B58F7DFBCF809117
:1007F000B0008F778093B0007ACF8091B0008F7D6A
:10080000F9CFA201910119A28E010F5D1F4FCA01FC
:10081000B901A50194010E944404605DF80162934E
:100820008F01211531054105510589F79ACFE1E482
:10083000F1E01382128288EE93E0A0E0B0E08483BE
:100840009583A683B78384E091E09183808385ECD0
:1008500090E09587848784EC90E09787868780EC8A
:1008600090E0918B808B81EC90E0938B828B82EC7B
:1008700090E0958B848B86EC90E0978B868B118E25
:10088000128E138E148E0895A1E21A2EAA1BBB1B82
:10089000FD010DC0AA1FBB1FEE1FFF1FA217B3074C
:1008A000E407F50720F0A21BB30BE40BF50B661F62
:1008B000771F881F991F1A9469F760957095809526
:1008C00090959B01AC01BD01CF010895EE0FFF1F74
:0C08D0000590F491E02D0994F894FFCFFE
:1008DC000000000039019900C6008601F700D50020
:1008EC00E90047657474696E672052656164696ECE
:1008FC0067000D0A004D6F6973747572652056613F
:06090C006C75650025007A
:00000001FF
